:1000000034C0000057C0000055C0000053C00000BD
:1000100051C000004FC000004DC000004BC00000A8
:1000200049C0000047C0000045C0000043C00000B8
:1000300041C000003FC000003DC000003BC00000C8
:1000400041C1000037C00000ACC1000085C1000004
:1000500031C000002FC000002DC000002BC00000E8
:1000600029C0000027C00000030211241FBECFEFEB
:10007000D8E0DEBFCDBF11E0A0E0B1E0E2E5F9E0FD
:1000800002C005900D92A632B107D9F721E0A6E291
:10009000B1E001C01D92A83DB207E1F710E0C5E351
:1000A000D0E003C02197FE01DED2C433D107D1F7DF
:1000B00046D24DC4A5CFCF92DF92EF92FF920F931D
:1000C0001F93CF93DF936C017A018B01C0E0D0E0E6
:1000D000CE15DF0589F0D8016D918D01D601ED9126
:1000E000FC910190F081E02DC6010995892B11F456
:1000F0007E0102C02196ECCFC701DF91CF911F9105
:100100000F91FF90EF90DF90CF900895089580E0D9
:1001100090E00895FC01538D448D252F30E0842F0D
:1001200090E0821B930B541710F0CF96089501971F
:100130000895FC01918D828D981761F0828DDF0109
:10014000A80FB11D5D968C91928D9F5F9F73928FCA
:1001500090E008958FEF9FEF0895FC01918D828DBF
:10016000981731F0828DE80FF11D858D90E008958C
:100170008FEF9FEF0895FC01918D228D892F90E0E4
:10018000805C9F4F821B91098F73992708958FE29E
:1001900091E0F1DF21E0892B09F420E0822F08951E
:1001A000FC01848DDF01A80FB11DA35ABF4F2C9114
:1001B000848D90E001968F739927848FA689B789E3
:1001C0002C93A089B1898C9180648C93938D848DBC
:1001D000981306C00288F389E02D80818F7D80838B
:1001E0000895EF92FF920F931F93CF93DF93EC014B
:1001F00081E0888F9B8D8C8D981305C0E889F989E3
:10020000808185FD23C0F62E0B8D10E00F5F1F4F00
:100210000F731127E02E8C8DE8120BC00FB607FC70
:10022000FACFE889F989808185FFF5CFCE01B8DF63
:10023000F2CF8B8DFE01E80FF11DE35AFF4FF082E4
:100240000B8FEA89FB898081806207C0EE89FF8974
:100250006083E889F98980818064808381E090E00F
:10026000DF91CF911F910F91FF90EF900895CF9361
:10027000DF93EC01888D8823C1F0EA89FB898081B6
:1002800085FD05C0A889B9898C9186FD0EC00FB681
:1002900007FCF5CF808185FFF2CFA889B9898C91C1
:1002A00085FFEDCFCE017CDFE8CFDF91CF910895C0
:1002B00080E090E0892B21F06ADF81110C9400002E
:1002C000089541D31F920F920FB60F9211242F93CE
:1002D0003F938F939F93AF93BF9380912B01909106
:1002E0002C01A0912D01B0912E0130912A0123E023
:1002F000230F2D3720F40196A11DB11D05C026E85E
:10030000230F0296A11DB11D20932A0180932B017A
:1003100090932C01A0932D01B0932E018091260182
:1003200090912701A0912801B09129010196A11D6A
:10033000B11D8093260190932701A0932801B093CB
:100340002901BF91AF919F918F913F912F910F9074
:100350000FBE0F901F9018951F920F920FB60F921D
:1003600011242F933F934F935F936F937F938F93BA
:100370009F93AF93BF93EF93FF938FE291E010DFD2
:10038000FF91EF91BF91AF919F918F917F916F916D
:100390005F914F913F912F910F900FBE0F901F9043
:1003A00018951F920F920FB60F9211242F938F93CF
:1003B0009F93EF93FF93E0913F01F0914001808183
:1003C000E0914501F091460182FD12C0908180913B
:1003D00048018F5F8F7320914901821751F0E0919E
:1003E0004801F0E0E15DFE4F958F8093480101C028
:1003F0008081FF91EF919F918F912F910F900FBE70
:100400000F901F901895AF92BF92CF92DF92EF920C
:10041000FF920F931F93CF93DF93EFE2F1E01382EC
:10042000128288EE93E0A0E0B0E084839583A683F7
:10043000B7838EE091E09183808385EC90E095878F
:10044000848784EC90E09787868780EC90E0918B9E
:10045000808B81EC90E0938B828B82EC90E0958B8B
:10046000848B86EC90E0978B868B118E128E138E88
:10047000148E8CECE82E81E0F82E83E090E0F701FA
:10048000918380838AE090E031D18C0184E290E016
:100490002DD1EC01F80191838083188219821A8290
:1004A0001B821C821D821E821F82188619861A8654
:1004B0001B8690E0A92E91E0B92EF501C080D18075
:1004C0001C861D861E861F86B6010D2C000C880B0F
:1004D000990BD1D0688B798B8A8B9B8B1C8A1D8A58
:1004E0001E8A1F8AF50182819381B601680F791FE8
:1004F000188E198E1A8E1B8E072E000C880B990BE6
:10050000BAD06C8F7D8F8E8F9F8F18A219A21AA2DE
:100510001BA2F7011783068380E090E0A0E8BFE309
:1005200082839383A483B583DF91CF911F910F9131
:10053000FF90EF90DF90CF90BF90AF9008957894A8
:1005400084B5826084BD84B5816084BD85B58260D8
:1005500085BD85B5816085BD80916E008160809389
:100560006E001092810080918100826080938100F2
:100570008091810081608093810080918000816002
:10058000809380008091B10084608093B10080915D
:10059000B00081608093B00080917A008460809385
:1005A0007A0080917A00826080937A0080917A004C
:1005B000816080937A0080917A00806880937A00CD
:1005C0001092C100E0913F01F091400182E08083F0
:1005D000E0913B01F0913C011082E0913D01F091EE
:1005E0003E018FEC808310924701E0914301F0912E
:1005F000440186E08083E0914101F09142018081D5
:1006000080618083E0914101F091420180818860A6
:100610008083E0914101F091420180818068808374
:10062000E0914101F091420180818F7D808346E01D
:1006300050E06CE171E08FE291E03DDD42E050E09E
:1006400063E271E08FE291E036DD80E090E0A0E0CF
:10065000BFE38093CE019093CF01A093D001B093DC
:10066000D10126DEFECFEE0FFF1F0590F491E02DA5
:100670000994E89409C097FB3EF490958095709595
:1006800061957F4F8F4F9F4F9923A9F0F92F96E9DE
:10069000BB279395F695879577956795B795F11153
:1006A000F8CFFAF4BB0F11F460FF1BC06F5F7F4FF0
:1006B0008F4F9F4F16C0882311F096E911C0772302
:1006C00021F09EE8872F762F05C0662371F096E80B
:1006D000862F70E060E02AF09A95660F771F881FDA
:1006E000DAF7880F9695879597F90895CF93DF935A
:1006F0008230910510F482E090E0E091D601F09113
:10070000D70120E030E0C0E0D0E0309711F1408127
:10071000518148175907C0F04817590761F4828181
:100720009381209719F09B838A832BC09093D701E4
:100730008093D60126C02115310519F042175307C1
:1007400018F49A01BE01DF01EF010280F381E02D70
:10075000DCCF2115310509F1281B390B2430310577
:1007600090F412968D919C9113976115710521F06B
:10077000FB019383828304C09093D7018093D601B9
:10078000FD01329644C0FD01E20FF31F8193919366
:10079000225031092D933C933AC02091D4013091DD
:1007A000D501232B41F420910601309107013093AC
:1007B000D5012093D4012091040130910501211528
:1007C000310541F42DB73EB7409108015091090120
:1007D000241B350BE091D401F091D501E217F3070A
:1007E000A0F42E1B3F0B2817390778F0AC014E5FA1
:1007F0005F4F2417350748F04E0F5F1F5093D50108
:100800004093D4018193919302C0E0E0F0E0CF01E6
:10081000DF91CF9108950F931F93CF93DF930097AC
:1008200009F48CC0FC013297138212820091D60128
:100830001091D7010115110581F420813181820FBA
:10084000931F2091D4013091D5012817390779F5EC
:10085000F093D501E093D40171C0D80140E050E09D
:10086000AE17BF0750F412962D913C911397AD012E
:100870002115310509F1D901F3CF9D01DA01338347
:10088000228360817181860F971F8217930769F415
:10089000EC0128813981260F371F2E5F3F4F3183AE
:1008A00020838A819B8193838283452B29F4F09353
:1008B000D701E093D60142C01396FC93EE931297B2
:1008C000ED01499159919E01240F351FE217F3075D
:1008D00071F480819181840F951F029611969C93EB
:1008E0008E938281938113969C938E931297E0E06E
:1008F000F0E0D80112968D919C911397009719F012
:10090000F8018C01F6CF8D919C9198012E5F3F4F9D
:10091000820F931F2091D4013091D50128173907F8
:1009200069F4309729F41092D7011092D60102C0D1
:10093000138212821093D5010093D401DF91CF91DD
:100940001F910F91089581E090E0F89400C0F89411
:02095000FFCFD7
:10095200C8002C010000D801800000000000F10056
:100962005B008A003701BB009900AD0052656164EB
:060972007921000D0A00CE
:00000001FF
